{
  "abi": [
    {
      "inputs": [
        {
          "internalType": "contract IERC20",
          "name": "token0",
          "type": "address"
        },
        {
          "internalType": "uint256",
          "name": "amount",
          "type": "uint256"
        }
      ],
      "name": "exchange",
      "outputs": [],
      "stateMutability": "nonpayable",
      "type": "function"
    },
    {
      "inputs": [
        {
          "internalType": "contract IERC20",
          "name": "token0",
          "type": "address"
        },
        {
          "internalType": "uint256",
          "name": "amount",
          "type": "uint256"
        }
      ],
      "name": "exchangeV2",
      "outputs": [],
      "stateMutability": "nonpayable",
      "type": "function"
    },
    {
      "inputs": [
        {
          "internalType": "contract IERC20",
          "name": "_usdt",
          "type": "address"
        },
        {
          "internalType": "contract IERC20",
          "name": "_usdc",
          "type": "address"
        }
      ],
      "name": "initialize",
      "outputs": [],
      "stateMutability": "nonpayable",
      "type": "function"
    },
    {
      "inputs": [],
      "name": "initialized",
      "outputs": [
        {
          "internalType": "bool",
          "name": "",
          "type": "bool"
        }
      ],
      "stateMutability": "view",
      "type": "function"
    },
    {
      "inputs": [],
      "name": "usdc",
      "outputs": [
        {
          "internalType": "contract IERC20",
          "name": "",
          "type": "address"
        }
      ],
      "stateMutability": "view",
      "type": "function"
    },
    {
      "inputs": [],
      "name": "usdt",
      "outputs": [
        {
          "internalType": "contract IERC20",
          "name": "",
          "type": "address"
        }
      ],
      "stateMutability": "view",
      "type": "function"
    }
  ],
  "bytecode": {
    "object": "0x608060405234801561001057600080fd5b50610606806100206000396000f3fe608060405234801561001057600080fd5b50600436106100625760003560e01c8063045d038914610067578063158ef93e1461007c578063232c1b611461009e5780632f48ab7d146100b15780633e413bee146100e1578063485cc955146100f4575b600080fd5b61007a610075366004610531565b610107565b005b6000546100899060ff1681565b60405190151581526020015b60405180910390f35b61007a6100ac366004610531565b6102a6565b6000546100c99061010090046001600160a01b031681565b6040516001600160a01b039091168152602001610095565b6001546100c9906001600160a01b031681565b61007a61010236600461055b565b610490565b6000546001600160a01b0383811661010090920416148061013557506001546001600160a01b038381169116145b6101765760405162461bcd60e51b815260206004820152600d60248201526c34b73b30b634b2103a37b5b2b760991b60448201526064015b60405180910390fd5b600080546001600160a01b0384811661010090920416146101a75760005461010090046001600160a01b03166101b4565b6001546001600160a01b03165b6040516323b872dd60e01b8152336004820152306024820152604481018490529091506001600160a01b038416906323b872dd906064016020604051808303816000875af115801561020a573d6000803e3d6000fd5b505050506040513d601f19601f8201168201806040525081019061022e919061058e565b5060405163a9059cbb60e01b8152336004820152602481018390526001600160a01b0382169063a9059cbb906044016020604051808303816000875af115801561027c573d6000803e3d6000fd5b505050506040513d601f19601f820116820180604052508101906102a0919061058e565b50505050565b6000546040516370a0823160e01b815233600482018190526101009092046001600160a01b0316916323b872dd91309084906370a0823190602401602060405180830381865afa1580156102fe573d6000803e3d6000fd5b505050506040513d601f19601f8201168201806040525081019061032291906105b7565b6040516001600160e01b031960e086901b1681526001600160a01b03938416600482015292909116602483015260448201526064016020604051808303816000875af1158015610376573d6000803e3d6000fd5b505050506040513d601f19601f8201168201806040525081019061039a919061058e565b506001546040516370a0823160e01b815233600482018190526001600160a01b03909216916323b872dd91309084906370a0823190602401602060405180830381865afa1580156103ef573d6000803e3d6000fd5b505050506040513d601f19601f8201168201806040525081019061041391906105b7565b6040516001600160e01b031960e086901b1681526001600160a01b03938416600482015292909116602483015260448201526064016020604051808303816000875af1158015610467573d6000803e3d6000fd5b505050506040513d601f19601f8201168201806040525081019061048b919061058e565b505050565b60005460ff16156104d95760405162461bcd60e51b8152602060048201526013602482015272185b1c9958591e481a5b9a5d1a585b1a5e9959606a1b604482015260640161016d565b6000805460016001600160a81b03199091166101006001600160a01b039586160217811790915580546001600160a01b03191691909216179055565b80356001600160a01b038116811461052c57600080fd5b919050565b6000806040838503121561054457600080fd5b61054d83610515565b946020939093013593505050565b6000806040838503121561056e57600080fd5b61057783610515565b915061058560208401610515565b90509250929050565b6000602082840312156105a057600080fd5b815180151581146105b057600080fd5b9392505050565b6000602082840312156105c957600080fd5b505191905056fea2646970667358221220c5ccb940450e0155991855da8327838f391f97dcc0d75540ba621a1d15ece48364736f6c63430008110033",
    "linkReferences": {}
  },
  "methodIdentifiers": {
    "exchange(address,uint256)": "045d0389",
    "exchangeV2(address,uint256)": "232c1b61",
    "initialize(address,address)": "485cc955",
    "initialized()": "158ef93e",
    "usdc()": "3e413bee",
    "usdt()": "2f48ab7d"
  },
  "id": 21
}